:020000040800F2
:10000000300D002069020008A13100082D2B0008E6
:100010009D310008A30400085940000800000000BA
:10002000000000000000000000000000C5330008D0
:10003000E908000800000000A53100083534000878
:10004000830200088302000883020008830200087C
:10005000830200088302000883020008830200086C
:10006000830200088302000883020008830200085C
:100070004507000883020008830200088302000885
:100080005507000883020008830200088302000865
:10009000830200088302000883020008830200082C
:1000A000830200088302000883020008830200081C
:1000B00005350008153500082535000883020008BD
:1000C00083020008830200088302000883020008FC
:1000D0008302000883020008294000083940000814
:1000E00083020008830200088302000883020008DC
:1000F00083020008830200088302000883020008CC
:1001000083020008830200088302000883020008BB
:1001100083020008830200088302000883020008AB
:1001200083020008650700088302000883020008B4
:10013000830200088302000883020008830200088B
:10014000830200088302000883020008830200087B
:100150008302000883020008830200084940000867
:10016000830200088302000883020008830200085B
:1001700083020008830200088302000800000000D8
:10018000830200088302000800F002F800F05CF827
:100190000AA090E8000C82448344AAF10107DA45E2
:1001A00001D100F051F8AFF2090EBAE80F0013F0D8
:1001B000010F18BFFB1A43F0010318471441000058
:1001C000344100000A444FF0000C10F8013B13F0DA
:1001D000070408BF10F8014B1D1108BF10F8015BA0
:1001E000641E05D010F8016B641E01F8016BF9D193
:1001F00013F0080F1EBF10F8014BAD1C0C1B09D1EA
:100200006D1E58BF01F801CBFAD505E014F8016B5B
:1002100001F8016B6D1EF9D59142D6D370470000ED
:100220000023002400250026103A28BF78C1FBD8FF
:10023000520728BF30C148BF0B6070471FB504F09C
:1002400031F81FBD10B510BD00F0F1F81146FFF7F1
:10025000F5FF03F0E9FF00F00FF903B4FFF7F2FF39
:1002600003BC00F017F9000009488047094800471F
:10027000FEE7FEE7FEE7FEE7FEE7FEE7FEE7FEE756
:10028000FEE7FEE704480549054A064B70470000B3
:10029000F13400088901000830070020300D0020EB
:1002A000300900203009002053EA020C00F0698078
:1002B0002DE9F04B4FF00006002B1FBFB3FA83F57A
:1002C00003FA05F424FA05F65E4012BF1643B2FAAB
:1002D00082F502FA05F4C5F120051EBF22FA05FCDD
:1002E00044EA0C04203556EA044C4FEA144418BF83
:1002F000641C4FF000084FF00009904271EB030CB2
:1003000039D3002919BFB1FA81F701FA07F6B0FA1B
:1003100080F700FA07F6C7F120071EBF20FA07FC96
:1003200046EA0C062037B6FBF4FCA7EB0507103FA6
:1003300007F01F0BCBF120060CFA0BFB2CFA06F68C
:1003400044BFB3460026202FA4BF5E464FF0000BEB
:100350005BEA060C08BF4FF0010B19EB0B09ABFB76
:10036000027C48EB0608C01B06FB02CC0BFB03CC4F
:1003700071EB0C01C1E70B46024641464846BDE819
:10038000F08B13B54FF000004FF00001AFF3008089
:10039000BDE81C4070474FF000020429C0F01280F5
:1003A00010F0030C00F01B80CCF1040CBCF1020F28
:1003B00018BF00F8012BA8BF20F8022BA1EB0C01FD
:1003C00000F00DB85FEAC17C24BF00F8012B00F8F3
:1003D000012B48BF00F8012B70474FF0000200B519
:1003E000134694469646203922BFA0E80C50A0E858
:1003F0000C50B1F12001BFF4F7AF090728BFA0E806
:100400000C5048BF0CC05DF804EB890028BF40F8D1
:10041000042B08BF704748BF20F8022B11F0804F13
:1004200018BF00F8012B704770477047704775463A
:1004300000F02CF8AE4605006946534620F0070050
:10044000854618B020B5FFF71DFFBDE820404FF0EE
:1004500000064FF000074FF000084FF0000B21F0AE
:100460000701AC46ACE8C009ACE8C009ACE8C0097B
:10047000ACE8C0098D46704710B50446AFF3008064
:100480002046BDE81040FFF7E8BE00000048704776
:10049000CC06002001491820ABBEFEE72600020072
:1004A000704700BFFEE7000010B51D48007810B986
:1004B00001201B4908701B480078072829D2DFE873
:1004C00000F028040910171C21001748007800F0DC
:1004D00033F81FE0154801781348007800F038F829
:1004E00018E0124801781048007800F05DF811E03B
:1004F0000F48007800F08AF80CE00D48007800F012
:10050000BFF807E00B4801780948007800F0F6F8DA
:1005100000E000BF00BF00200149087010BD0000CE
:100520005701002038010020390100203A01002045
:10053000440100204501002010B504460521204655
:1005400002F032FE00200149087010BD3801002081
:1005500070B505460C461248C07838B91048007886
:10056000A84203D10E484078A0420CD0214628462C
:1005700002F01AFE0A48057044708078401C084951
:1005800088700020C87006488078042807DDFF20A6
:10059000034908704870002088700249087070BDD7
:1005A000580100203801002070B504460D46012096
:1005B000134908701348C07838B912480078A0422F
:1005C00003D110484078A8420CD02946204602F0BA
:1005D000EBFD0C48047045708078401C0949887018
:1005E0000020C87007488078042807DDFF200549EF
:1005F00008704870002088700349087070BD0000C2
:1006000060010020580100203801002010B5044688
:100610001748C078A8B116484078A04211D02146AA
:100620001448007802F0C0FD12480078401C1149BF
:1006300008700F4844708078401C0D498870002075
:10064000C8700B488078052806DB002008498870B0
:10065000094908700749087008480078012806D140
:10066000002005490870034908700449087010BD4E
:100670005C01002061010020380100203B010020C6
:1006800010B504461948C078C8B118484078A0424F
:1006900015D016484078052811D021461448007816
:1006A00002F082FD12480078401C114908700F4882
:1006B00044708078401C0D4988700020C8700B4839
:1006C0008078052806DB00200849887009490870F1
:1006D0000749087008480078012806D1002005491C
:1006E0000870034908700449087010BD5C010020BF
:1006F00062010020380100203B01002070B5054652
:100700000C460C48C07848B12146284602F0D0FD7E
:1007100008480570447000200649C87006480078F3
:10072000012806D1002005490870054908700249D2
:10073000087070BD5C0100203B01002038010020E2
:100740006201002010B5024800F0DCF910BD000085
:100750000404002010B5024800F0D4F910BD0000D8
:10076000A403002010B5024800F0CCF910BD000031
:10077000640400200146087810381823B0FBF3F217
:100780000848805CC865032A05D908686FF309002A
:10079000001D886503E008686FF309008865886DAF
:1007A00070470000AE420008014600208A6A8B694B
:1007B000CBB932B1012A0DD0022A03D0032A10D1BD
:1007C0000EE000BFCB6A03F08073B3F1807F00D1ED
:1007D000012007E0CB6AB3F1C07F00D1012001E026
:1007E00000E000BF34E08B69B3F5005F1AD132B18D
:1007F000012A07D0022A03D0032A11D10AE000BF40
:1008000001200EE0CB6A03F08073B3F1807F00D14A
:10081000012006E0CB6AB3F1C07F00D1012000E0E7
:1008200000BF15E032B1012A05D0022A04D0032A04
:100830000CD103E000BF00BF012008E0CB6A03F049
:100840008073B3F1807F00D1012000E000BF00BFC2
:10085000704730B50468246824F4802405682C604F
:10086000046863608468402C04D10468A260046852
:10087000E16003E00468A1600468E26030BD00004C
:100880001249096841F08071104A11600021104A34
:1008900051601146096841F0010111600D49414361
:1008A0000D4A1160114609684FF47A72B1FBF2F1FA
:1008B0000A4A116008490968064AB1FBF2F1084A80
:1008C00011600021074A116070470000FCED00E054
:1008D000001000E040420F00180000201C00002023
:1008E000200000202400002070470000024908601A
:1008F0000121014A117170474C01002010B50022FE
:100900000121084600F027F80A20FFF7EFFF00BF9B
:1009100003F0C0FB0028FBD000220121022000F0E0
:100920001AF80A20FFF7E2FF00BF03F0B3FB00282C
:10093000FBD000220121032000F00DF80A20FFF770
:10094000D5FF00BF03F0A6FB0028FBD010BD10B5FB
:1009500003F006FC10BD7FB506460C461546002088
:1009600000900190029003908DF80060F3208DF8C4
:100970000100AB208DF802008DF803408DF8045083
:100980006B208DF805000621684603F06FFC7FBDE3
:100990002DE9FF4706460F4615469846DDE90D9AB4
:1009A0000C9C002000900190029003908DF8006054
:1009B000FD208DF801008DF8027028128DF80300DB
:1009C000E8B28DF804008DF80580200E8DF8060041
:1009D000200C8DF80700200A8DF80800E0B28DF891
:1009E00009008DF80A908DF80BA06B208DF80C0093
:1009F0000D21684603F03AFCBDE8FF871FB50446A9
:100A0000002000900190029003908DF80040FF209C
:100A10008DF8010066208DF802006B208DF8030030
:100A20000421684603F022FC1FBD72B600BFFEE73A
:100A300070B50446A56D00F063FB064694F83500DA
:100A4000022808D08020606500BF002084F83400B0
:100A500000BF012070BD2068006820F016002168EA
:100A600008602068406920F0800021684861206C9F
:100A700008B9A06C28B12068006820F0080021683F
:100A800008602068006820F001002168086010E01C
:100A900000F036FB801B05280BD920206065032061
:100AA00084F8350000BF002084F8340000BF032024
:100AB000D0E72068006800F001000028E8D194F831
:100AC0005C103F208840A860012084F8350000BFFA
:100AD000002084F8340000BF00BFBBE7014691F856
:100AE0003500022803D0802048650120704705208A
:100AF00081F835000868006820F001000A6810607D
:100B00000020F3E7F8B50446002000908C48006808
:100B10004FF41651B0FBF1F7A56D2E6894F85C10F8
:100B200008208840304098B12068006800F0040038
:100B300070B12068006820F004002168086094F813
:100B40005C1008208840A860606D40F0010060657E
:100B500094F85C1001208840304068B120684069FA
:100B600000F0800040B194F85C1001208840A8603B
:100B7000606D40F00200606594F85C1004208840CD
:100B8000304068B12068006800F0020040B194F87D
:100B90005C1004208840A860606D40F0040060652F
:100BA00094F85C1010208840304078B320680068CA
:100BB00000F0080050B394F85C1010208840A86042
:100BC0002068006800F4802080B12068006800F48C
:100BD000002028B9206CC8B12046216C884715E058
:100BE000A06C98B12046A16C88470FE0206800688F
:100BF00000F4807028B92068006820F0080021689F
:100C00000860206C10B12046216C884794F85C1075
:100C1000202088403040002865D02068006800F01F
:100C2000100000285FD094F85C1020208840A86055
:100C300094F83500052828D12068006820F01600B7
:100C4000216808602068406920F0800021684861C0
:100C5000206C08B9A06C28B12068006820F008005A
:100C60002168086094F85C103F208840A86001204B
:100C700084F8350000BF002084F8340000BF206DE8
:100C800010B12046216D8847F8BD2068006800F447
:100C9000802080B12068006800F4002028B9606CD2
:100CA00010B12046616C88471DE0E06BD8B120464A
:100CB000E16B884717E02068006800F4807068B92D
:100CC0002068006820F0100021680860012084F886
:100CD000350000BF002084F8340000BFE06B10B185
:100CE0002046E16B8847606D38B3606D00F001000D
:100CF000F0B1052084F835002068006820F001007C
:100D00002168086000BF0098401C0090B84200D9DC
:100D100005E02068006800F001000028F3D100BF62
:100D2000012084F8350000BF002084F8340000BFA3
:100D3000E06C10B12046E16C884700BFA4E70000DA
:100D40000C0000202DE9F0410446002500F0D8F900
:100D5000074614B90120BDE8F081606A00B100BF08
:100D6000022084F8350000BF002084F8340000BF62
:100D70002068006820F00100216808600AE000F0A7
:100D8000BFF9C01B052805D920206065032084F821
:100D90003500E0E72068006800F001000028EED18F
:100DA0002068056821480540D4E901010843E1684D
:100DB00008432169084361690843A1690843E1695F
:100DC0000843216A08430543606A042803D1D4E933
:100DD0000B0108430543206805602068456925F03C
:100DE0000705606A0543606A04280DD1A06A0543BF
:100DF000E06A48B12046FFF7D7FC28B14020606583
:100E0000012084F83500A6E7206845612046FFF7F9
:100E1000B1FC064694F85C103F208840B06000208A
:100E20006065012084F83500002094E73F8010F0D1
:100E30002DE9F04704460D4616461F464FF00008C0
:100E4000D4F8589000BF94F83400012802D1022051
:100E5000BDE8F087012084F8340000BF94F8350025
:100E6000012825D1022084F83500002060653B462A
:100E7000324629462046FFF7ECFC94F85C103F20F0
:100E80008840C9F808002068006840F01600216812
:100E90000860206C28B12068006840F008002168D4
:100EA00008602068006840F001002168086006E0E2
:100EB00000BF002084F8340000BF4FF00208404615
:100EC000C6E7000070B5044600F01AF9064625464C
:100ED000681C10B104480078054400BF00F010F908
:100EE000801BA842FAD370BD08000020F8B5024666
:100EF0000B460025002400200021D6E0012606FA3A
:100F000001F51E6806EA0504AC4274D11E7906F0AC
:100F10000306012E04D01E7906F00306022E13D11B
:100F200090684F000326BE40B0434F00DE68BE40CD
:100F300030439060506801268E40B0431E79C6F35E
:100F400000168E40304350601E7906F00306032ED3
:100F500009D0D0684F000326BE40B0434F009E68C2
:100F6000BE403043D0601E7906F00306022E13D136
:100F7000CF0802F1200656F827004E07F70E0F267D
:100F8000BE40B0434F07FF0E1E69BE403043CF083E
:100F900002F1200646F8270010684F000326BE40E5
:100FA000B0431E7906F003064F00BE403043106088
:100FB0005E6806F44036002E76D000BF002600960C
:100FC0003C4E366846F480463A4F3E603E463668B0
:100FD00006F48046009600BF00BF374E8F0856F8D3
:100FE00027008E07370F0F26BE40B043334EB24264
:100FF00002D1002624E057E0314EB24201D1012651
:101000001EE0304EB24201D1022619E02E4EB2420D
:1010100001D1032614E02D4EB24201D104260FE087
:101020002B4EB24201D105260AE02A4EB24201D12E
:10103000062605E0284EB24201D1072600E0082628
:101040008F073F0FBE4030431B4E8F0846F82700E6
:10105000224E3068A0435E6806F4801606B1204335
:101060001E4E3060361D3068A0435E6806F40016E0
:1010700006B12043194E361D3060184E361F3068B9
:10108000A0435E6806F4003606B12043134E361FB7
:101090003060361F3068A0435E6806F4803606B1C3
:1010A00020430E4E083E3060491C1029FFF426AF45
:1010B000F8BD0000443802400838014000000240FA
:1010C0000004024000080240000C024000100240F0
:1010D0000014024000180240001C0240083C01407D
:1010E00010B5426921EA020302EA010443EA04431B
:1010F000836110BD0AB1816101E00B048361704717
:1011000001480068704700000000002003480068A4
:10111000034909780844014908607047000000202D
:101120000800002010B50D48006840F400700B491D
:1011300008600846006840F480600860084600685F
:1011400040F480700860032000F0A6F80F2000F043
:1011500007F800F02BF8002010BD0000003C024012
:1011600070B504460E4800784FF47A71B1FBF0F088
:101170000C490968B1FBF0F5284600F02FFC08B1D6
:10118000012070BD102C07D200222146501E00F015
:1011900045F80548046001E00120F2E70020F0E78F
:1011A000080000200C0000200400002008B500BF4B
:1011B000002000900E48006840F480400C49086010
:1011C0000846006800F48040009000BF00BF00BFE8
:1011D00000200090081F006840F08050091F086040
:1011E0000846006800F08050009000BF00BF08BDB6
:1011F000443802400146084600280DDB00BF00BF0E
:1012000000F01F0301229A4043099B0003F1E023F1
:10121000C3F8002100BF00BF00BF70472DE9F05F99
:1012200080460D461646002702F018FF074639464D
:101230002A46334601F00700C0F1070ABAF1040F4D
:1012400002D94FF0040A01E0C0F1070AD14600F1CB
:10125000040ABAF1070F02D24FF0000A01E0A0F130
:10126000030AD4464FF0010A0AFA09FAAAF1010A60
:101270000AEA020A0AFA0CFA4FF0010B0BFA0CFB0D
:10128000ABF1010B0BEA030B4AEA0B042146404683
:1012900002F0ECFEBDE8F09F00BF00F00702064B35
:1012A00019684FF6FF031940044B0B4343EA022130
:1012B000014B196000BF70470CED00E00000FA051B
:1012C00070B504460D460CB9012070BD5848006841
:1012D00000F00700A84209D255490D700846006881
:1012E00000F00700A84201D00120EEE7207800F0CE
:1012F000020002281DD1207800F00400042805D146
:101300004C48006840F4E0504A490860207800F0FA
:101310000800082805D14748006840F46040454966
:1013200008604448006820F0F000A1680843414983
:101330000860207800F00100A8B36068012807D198
:101340003C4808380068C0F34040B8B90120BCE709
:101350006068022802D06068032807D13548083841
:101360000068C0F3406048B90120AEE73148083852
:101370000068C0F3400008B90120A6E72D480068C6
:1013800020F00300616808432A490860FFF7B8FEAF
:10139000064609E0FFF7B4FE801B41F2883188421F
:1013A00002D9032091E707E02248006800F00C0012
:1013B0006168B0EB810FEDD11D48006800F00700B7
:1013C000A84209D91A490D700846006800F00700C4
:1013D000A84201D0012078E7207800F0040004281A
:1013E00007D11448006820F4E050E168084311492F
:1013F0000860207800F00800082808D10D4800682F
:1014000020F46040216940EAC1000A49086000F008
:101410003FF808490968C1F30311074A515CC84005
:101420000649086006480068FFF79AFE00204CE76E
:10143000003C024008380240B64200080C00002080
:101440000400002001480068704700000C000020E4
:1014500000B5FFF7F7FF04490968C1F38221034A89
:10146000515CC84000BD000008380240C642000878
:1014700000B5FFF7E7FF04490968C1F34231034AA9
:10148000515CC84000BD000008380240C642000858
:101490002DE9F047002400250026A14625480068D4
:1014A00000F00C0020B1042805D008283AD105E04E
:1014B000DFF8849039E0DFF8849036E01D48001FA3
:1014C000006800F03F041B48001F006800F4800023
:1014D00078B11A481749091F0968C1F38811A0FBA0
:1014E00001700146224600233846FEF7DDFE054620
:1014F0000EE011480F49091F0968C1F38811A0FBCC
:1015000001700146224600233846FEF7CDFE05460F
:101510000848001F0068C0F30140401C4600B5FBAE
:10152000F6F902E0DFF8109000BF00BF4846BDE8C2
:10153000F0870000083802400024F40000127A000E
:10154000F8B504460CB90120F8BD207800F0010080
:10155000002874D0F948006800F00C0004280DD071
:10156000F648006800F00C00082813D1F348001F6B
:10157000006800F48000B0F5800F0BD1EF48083808
:101580000068C0F34040002859D06068002856D158
:101590000120D9E700BF6068B0F5803F08D1E74877
:1015A0000838006840F48030E449083908601EE0DB
:1015B0006068B0F5A02F0DD1E0480838006840F40D
:1015C0008020DE49083908600846006840F4803011
:1015D00008600CE0D9480838006820F48030D7490A
:1015E000083908600846006820F48020086000BFC1
:1015F000606890B1FFF784FD054606E0FFF780FDC7
:10160000401B642801D903209EE7CC4808380068B5
:10161000C0F340400028F1D011E0FFF771FD05460E
:1016200006E0FFF76DFD401B642801D903208BE71E
:10163000C24808380068C0F340400028F1D1207843
:1016400000F0020002285FD1BC48006800F00C00E6
:1016500058B1BA48006800F00C0008281CD1B748FF
:10166000001F006800F48000B0B9B4480838006872
:10167000C0F3400020B1E068012801D0012063E7F9
:10168000AE480838006820F0F800216940EAC1003F
:10169000AA490839086037E0E06800B30120A8498A
:1016A0000860FFF72DFD054606E0FFF729FD401B0A
:1016B000022801D9032047E7A04808380068C0F392
:1016C00040000028F1D09D480838006820F0F8005C
:1016D000216940EAC10099490839086014E00020F6
:1016E00097490860FFF70CFD054606E0FFF708FD87
:1016F000401B022801D9032026E7904808380068DB
:10170000C0F340000028F1D1207800F0080008283C
:101710002CD16069A8B101208A490860FFF7F0FC6C
:10172000054606E0FFF7ECFC401B022801D9032028
:101730000AE782486C300068C0F340000028F1D00E
:1017400014E000207F490860FFF7DAFC054606E058
:10175000FFF7D6FC401B022801D90320F4E67748A6
:101760006C300068C0F340000028F1D1207800F010
:101770000400042870D1002770483830006800F059
:10178000805090B900BF002000906C48383000684D
:1017900040F080506949383108600846006800F020
:1017A0008050009000BF00BF01276748006800F428
:1017B0008070B0B96448006840F480706249086085
:1017C000FFF79EFC054606E0FFF79AFC401B022847
:1017D00001D90320B8E65C48006800F48070002856
:1017E000F2D000BFA068012808D1544868300068D2
:1017F00040F001005149683108601DE0A0680528EB
:101800000DD14E486830006840F004004B49683103
:1018100008600846006840F0010008600CE0474896
:101820006830006820F001004449683108600846CB
:10183000006820F00400086000BFA068A8B1FFF7AE
:101840005FFC054609E0FFF75BFC401B41F2883175
:10185000884202D9032077E626E0384868300068DD
:10186000C0F340000028EED013E0FFF749FC054626
:1018700008E0FFF745FC401B41F28831884201D95E
:10188000032061E62D4868300068C0F3400000285E
:10189000EFD1012F07D129483830006820F080505F
:1018A00026493831086000BFA069002845D0234888
:1018B000006800F00C0008285DD0A069022845D11E
:1018C00000201F490866FFF71BFC054606E0FFF7EE
:1018D00017FC401B022801D9032035E617480838B9
:1018E0000068C0F340600028F1D1D4E90701084343
:1018F000616A40EA81110122A06AC2EB500041EA0C
:1019000000412C20005D41EA00600C49091F08607D
:1019100001200B490866FFF7F3FB054606E0FFF7D9
:10192000EFFB401B022801D903200DE603480838CD
:101930000068C0F340600028F1D049E00838024058
:1019400000004742800E47420070004000202149BD
:101950000866FFF7D5FB054606E0FFF7D1FB401B05
:10196000022801D90320EFE51B480068C0F340605E
:101970000028F2D12CE0A069012800D1E4E5164846
:10198000001D0668A069012820D006F48001E069E6
:1019900081421BD106F03F01206A814216D147F6F1
:1019A000C0703040616AB0EB811F0FD106F4403146
:1019B0000122A06AC2EB5000B1EB004F06D106F045
:1019C00070612C20005DB1EB006F01D00120BBE500
:1019D0000020B9E5000047420038024070B50446D7
:1019E0002546681EB0F1807F01D301200FE0681EFC
:1019F0004FF0E02148610F214FF0FF3002F036FB3D
:101A000000204FF0E021886107200861002070BDB0
:101A10007047704710B50346002200BF93F83C00A2
:101A2000012801D1022010BD012083F83C0000BF35
:101A300022F0FF00CC6840EA040222F440708C6877
:101A400040EA040222F480604C6840EA040222F476
:101A500000600C6840EA040222F480500C6940EAFD
:101A6000040222F400504C6940EA040222F480404F
:101A7000CC6940EA04021868426400BF002083F881
:101A80003C0000BF00BFCEE730B502460B4600BFAA
:101A900092F83C00012801D1022030BD012082F8DB
:101AA0003C0000BF022082F83D00106844681068C6
:101AB000816824F070041868044310684460184D6D
:101AC0001068A8421BD01068B0F1804F17D0154D98
:101AD0001068A84213D0144D1068A8420FD0134DBF
:101AE0001068A8420BD0124D1068A84207D0114DC3
:101AF0001068A84203D0104D1068A84205D121F00B
:101B000080015868014310688160012082F83D001F
:101B100000BF002082F83C0000BF00BFBDE700000E
:101B2000000001400004004000080040000C00409C
:101B300000040140004001400018004010B5044678
:101B40000CB9012010BD94F83D0028B9002084F89C
:101B50003C00204600F026F8022084F83D00211DBC
:101B6000206801F0E7FC012084F8460000BF84F8FB
:101B70003E0001213F2001554020015541200155E3
:101B800000BF00BF012084F84200432001554420DB
:101B900001554520015500BF012084F83D0000207B
:101BA000D0E7000038B504463849206888420FD194
:101BB00000BF002000903648006840F00100344922
:101BC00008600846006800F00100009000BF5BE07C
:101BD0002068B0F1804F1AD100BF002000902C483F
:101BE000001F006840F001002949091F08600846ED
:101BF000006800F00100009000BF00BF0022114605
:101C00001C20FFF70BFB1C20FFF7F4FA3CE02149F6
:101C1000206888421AD100BF002000901C48001F95
:101C2000006840F002001A49091F08600846006871
:101C300000F00200009000BF00BF002201211D2023
:101C4000FFF7ECFA1D20FFF7D5FA1DE012492068D6
:101C5000884219D100BF002000900D48001F006885
:101C600040F004000A49091F08600846006800F0B7
:101C70000400009000BF00BF002202211E20FFF7D9
:101C8000CDFA1E20FFF7B6FA38BD00000000014073
:101C9000443802400004004000080040014691F82A
:101CA0003D00012801D001207047022081F83D004D
:101CB0000868C06840F001000B68D8601A4B0868DB
:101CC00098421BD00868B0F1804F17D0174B0868B6
:101CD000984213D0164B086898420FD0154B0868ED
:101CE00098420BD0144B0868984207D0134B0868F1
:101CF000984203D0124B086898420CD1086880685B
:101D000000F00702062A0CD00868006840F00100C5
:101D10000B68186005E00868006840F001000B6877
:101D200018600020C0E700000000014000040040EF
:101D300000080040000C0040000401400040014049
:101D4000001800402DE9F04104460D46002700BF71
:101D500094F83C00012802D10220BDE8F081012066
:101D600084F83C0000BF022084F83D0020688668AB
:101D700026F0770626F47F4620688660286850287B
:101D800033D00CDC202850D004DC00284BD01028A5
:101D900051D149E0302849D040284CD139E0602861
:101DA0002DD0702807D0B0F5805F03D0B0F5005F6C
:101DB00041D10DE041E0D5E902136A68206801F0E5
:101DC0003EFC2068866846F077062068866034E02E
:101DD000D5E902136A68206801F031FC2068806848
:101DE00040F480402168886027E0EA6869682068DC
:101DF00001F016FD5021206801F02CFC1DE0EA687E
:101E00006968206801F01FFD6021206801F022FC54
:101E100013E0EA686968206801F002FD402120684B
:101E200001F018FC09E000BF00BF00BF296820686E
:101E300001F010FC01E0012700BF00BF012084F881
:101E40003D0000BF002084F83C0000BF384684E716
:101E5000704770B504462068C5682068066906F0BA
:101E60000200022819D105F00200022815D1401FF6
:101E700021680861012020772068806900F0030054
:101E800018B12046FFF7E4FF05E0204600F0C8F84F
:101E9000204600F07CF90020207706F0040004289A
:101EA00019D105F00400042815D1C0432168086148
:101EB000022020772068806900F4407018B1204625
:101EC000FFF7C6FF05E0204600F0AAF8204600F024
:101ED0005EF90020207706F00800082819D105F0E7
:101EE0000800082815D1C043216808610420207724
:101EF0002068C06900F0030018B12046FFF7A8FF72
:101F000005E0204600F08CF8204600F040F9002063
:101F1000207706F01000102819D105F010001028C5
:101F200015D1C04321680861082020772068C06966
:101F300000F4407018B12046FFF78AFF05E0204604
:101F400000F06EF8204600F022F90020207706F01D
:101F5000010048B105F0010030B16FF001002168C7
:101F60000861204600F09AF906F08000802809D127
:101F700005F08000802805D1C04321680861204613
:101F8000FFF746FD06F04000402809D105F040006B
:101F9000402805D1C04321680861204600F0A6F919
:101FA00006F02000202809D105F02000202805D1C6
:101FB000C043216808612046FFF72BFD70BD00007B
:101FC00010B586B00446142101A8FEF706FA11499F
:101FD000206888421CD100BF002000900E48006895
:101FE00040F010000C4908600846006800F010003E
:101FF000009000BF00BF4815019002200290002011
:10200000039004900120059001A90448FEF76EFF9B
:1020100006B010BD00000140303802400010024000
:1020200070472DE9F04104460D461646002700BFD3
:1020300094F83C00012802D10220BDE8F081012083
:1020400084F83C0000BF36B1042E1BD0082E31D0DE
:102050000C2E5ED145E02946206801F005FB206882
:10206000806940F00800216888612068806920F05C
:102070000400216888612068806929690843216813
:10208000886148E02946206801F026FB20688069C5
:1020900040F40060216888612068806920F48060D5
:1020A0002168886120688069296940EA01202168E7
:1020B000886130E02946206801F04CFB2068C06947
:1020C00040F008002168C8612068C06920F0040061
:1020D0002168C8612068C069296908432168C8610E
:1020E00019E02946206801F071FB2068C06940F4BE
:1020F00000602168C8612068C06920F480602168A0
:10210000C8612068C069296940EA01202168C86166
:1021100001E0012700BF00BF00BF002084F83C00A1
:1021200000BF384689E710B504460CB9012010BD40
:1021300094F83D0028B9002084F83C00204600F0C7
:1021400025F8022084F83D00211D206801F0F2F9F5
:10215000012084F8460000BF84F83E0001213F20A2
:102160000155402001554120015500BF00BF01200D
:1021700084F8420043200155442001554520015573
:1021800000BF012084F83D000020D0E77047704771
:1021900070B504460D4615B994F83E000BE0042DC9
:1021A00002D13F20005D06E0082D02D14020005DF5
:1021B00001E04120005D012801D0012070BD1DB962
:1021C000022084F83E000EE0042D03D102213F20BE
:1021D000015508E0082D03D102214020015502E0FD
:1021E00002214120015501222946206801F016FAFA
:1021F00023492068884203D022492068884201D1BF
:10220000012000E0002028B12068406C40F400402C
:10221000216848641A49206888421BD02068B0F1C0
:10222000804F17D018492068884213D0174920687A
:1022300088420FD01649206888420BD01149206887
:10224000884207D013492068884203D01249206889
:1022500088420CD12068806800F00706062E0CD05A
:102260002068006840F001002168086005E02068EF
:10227000006840F001002168086000209EE700002F
:10228000000001400004014000040040000800403C
:10229000000C0040004001400018004010B504460A
:1022A0000D4884420AD10D48007938B10B480068C6
:1022B00020B10A480068401E084908600848844266
:1022C00001D1FEF7F1F80748844204D14FF40051E0
:1022D0000548FEF705FF10BDAC0100204C010020B1
:1022E000F40100203C020020000C02407047F8B5C9
:1022F00004460E46174694F8420020282ED106B117
:102300000FB90120F8BD01202063002060633A4628
:102310003146204601F0AEFD0546EDB9206B01289F
:1023200019D100BF0020009020680068009020684C
:102330004068009000BF00BF00BF00BF21680C31A3
:1023400051E8001F41F0100021680C3141E8000203
:10235000002AF3D100E001252846D3E70220D1E787
:1023600070B504460D4613492068884204D1C11354
:102370001148FEF7B5FE1BE0104884420DD14FF422
:1023800000410D48FEF7ACFE0D4801F071FA012046
:102390000C49C8700C49C8700AE00C48844207D147
:1023A0004FF400410448FEF79BFE094800F016FC7C
:1023B00070BD000000440040000C024014030020E7
:1023C00044050020580100205C0100205C0300202F
:1023D000C405002010B504460F4884420BD180226A
:1023E0000E49FFF784FF0E480068006820F00800DF
:1023F0000B49096808600B4884420BD180220A49C6
:10240000FFF775FF09480068006820F008000749D9
:102410000968086010BD0000140300204405002076
:10242000040400205C030020C40500206404002094
:102430002DE9F84F0446206805682068C6682068C2
:1024400047694FF00009CA4605F00F09B9F1000FBE
:102450000AD105F0200038B106F0200020B1204656
:1024600001F073FBBDE8F88FB9F1000F7CD007F0E5
:10247000010018B906F49070002875D005F001002D
:1024800030B106F4807018B1606C40F001006064F7
:1024900005F0040030B107F0010018B1606C40F0A5
:1024A0000200606405F0020030B107F0010018B1CD
:1024B000606C40F00400606405F0080048B106F06C
:1024C000200010B907F0010018B1606C40F008005E
:1024D0006064606C002846D005F0200028B106F04A
:1024E000200010B1204601F030FB20684069C0F3A5
:1024F000801A606C00F0080010B9BAF1000F2DD0FE
:10250000204601F0C9FA2068406900F040004028E8
:1025100020D100BF00BF2168143151E8001F21F015
:1025200040002168143141E80002002AF3D100BFC5
:10253000E06B50B17748E16B0865E06BFEF7CEFACF
:1025400088B1E06B016D88470DE02046FFF742FF40
:1025500009E009E02046FFF73DFF04E02046FFF7D1
:1025600039FF002060647DE7206B012878D105F0F9
:102570001000002874D006F010000028FAD000BF28
:10258000002000902068006800902068406800905B
:1025900000BF00BF2068406900F04000402860D1C3
:1025A000E06B006840681FFA80F8B8F1000F56D061
:1025B000A08D404553DDA4F82E80E06BC069B0F5D6
:1025C000807F43D000BF00BF21680C3151E8001F5D
:1025D00021F4807021680C3141E80002002AF3D117
:1025E00000BF00BF00BF2168143151E8001F21F077
:1025F00001002168143141E80002002AF3D100BF34
:1026000000BF00BF2168143151E8001F21F04000D5
:102610002168143141E80002002AF3D100BF2020D4
:1026200084F842000020206300BF00BF21680C3105
:1026300051E8001F21F0100021680C3141E8000230
:10264000002AF3D100BFE06BFEF7F2F902206063CD
:10265000A08DE28D801A81B22046FFF781FE01E74E
:1026600042E0A08DE18D401A1FFA80F8E08DD0B3D2
:10267000B8F1000F37D000BF00BF21680C3151E81E
:10268000001F21F4907021680C3141E80002002AFB
:10269000F3D100BF00BF00BF2168143151E8001F13
:1026A00021F001002168143141E80002002AF3D131
:1026B00000BF202084F842000020206300BF00BF3C
:1026C00021680C3151E8001F21F0100021680C3105
:1026D00041E80002002AF3D100BF022060634146B6
:1026E0002046FFF73DFEBDE605F0800030B106F064
:1026F000800018B1204601F021FCB3E605F040004F
:1027000030B106F0400018B1204601F0FBF9A9E60F
:1027100000BFA7E65D39000810B504460CB90120DA
:1027200010BDA06900B100E000BF94F8410028B9D5
:10273000002084F84000204600F02AF8242084F885
:1027400041002068C06820F400502168C86020461D
:1027500001F07AFA2068006920F49040216808614D
:102760002068406920F02A00216848612068C0681C
:1027700040F400502168C86000206064202084F884
:10278000410084F842000020606300BFC8E70000F9
:1027900010B586B00446142101A8FDF71EFEA54918
:1027A0002068884231D100BF00200090A248006814
:1027B00040F01000A04908600846006800F01000D2
:1027C000009000BF00BF00BF002000909A4814385E
:1027D000006840F001009849143908600846006814
:1027E00000F00100009000BF00BF4FF4C0600190F6
:1027F00002200290002003900320049007200590FF
:1028000001A98E48FEF772FB11E18D4920688842CC
:1028100057D100BF002000908748001F006840F497
:1028200000308549091F08600846006800F4003040
:10283000009000BF00BF00BF002000907E48143809
:10284000006840F001007C491439086008460068BF
:1028500000F00100009000BF00BF0C20019002209A
:10286000029000200390032004900720059001A906
:102870007248FEF73BFB7348734908604FF00060F5
:102880004860002170488160C1604FF4806101613F
:10289000002141618161C16101624162FEF752FA2A
:1028A00008B1FEF7C2F800BF6748E063846300BF69
:1028B000002211462620FEF7B1FC2620FEF79AFCE6
:1028C000B5E062492068884259D100BF00200090DD
:1028D0005948001F006840F480205749091F0860CC
:1028E0000846006800F48020009000BF00BF00BFD1
:1028F0000020009050481438006840F008004E490D
:10290000143908600846006800F00800009000BF15
:1029100000BF4FF44070019002200290002003900D
:10292000032004900720059001A94948FEF7DEFA2C
:1029300044486038474908604FF000604860002113
:1029400044488160C1604FF48061016100214161B0
:102950008161C16101624162FEF7F4F908B1FEF7DD
:1029600064F800BF3B48E063846300BF0022114667
:102970002720FEF753FC2720FEF73CFC57E03649A2
:102980002068884253D100BF002000902A48006888
:1029900040F02000284908600846006800F0200048
:1029A000009000BF00BF00BF0020009022481438F4
:1029B000006840F0040020491439086008460068A7
:1029C00000F00400009000BF00BFC0200190022072
:1029D000029000200390032004900820059001A994
:1029E0001E48FEF783FA1E481E49086080054860AD
:1029F00000211C488160C1604FF4806101610021A9
:102A000041618161C16101624162FEF79BF908B1D8
:102A1000FEF70BF800BF1348E063846300BF002299
:102A200011464720FEF7FAFB4720FEF7E3FB06B00E
:102A300010BD000000100140443802400000024078
:102A40000044004088600240A40300200048004089
:102A5000000C024004040020001401400008024061
:102A60002864024064040020704770472DE9F84F45
:102A700004460E46174699464FF0000A94F8410066
:102A8000202850D106B117B90120BDE8F88F0020E9
:102A90006064212084F84100FEF732FB8246A7845F
:102AA000E784A068B0F5805F04D1206910B90025E3
:102AB000B04602E035464FF000081EE053460022C3
:102AC00080212046CDF8009001F068FA20B1202046
:102AD00084F841000320D8E745B9B8F80000C0F3F6
:102AE00008002168486008F1020803E0287821689E
:102AF00048606D1CE08C401EE084E08C0028DDD135
:102B00005346002240212046CDF8009001F046FABD
:102B100020B1202084F841000320B6E7202084F86B
:102B200041000020B1E70220AFE7704700BFFEE799
:102B300010B5A820FDF7A4FE00211B48FFF728FBD5
:102B400080221A491A48FFF7D2FB802219491A48F5
:102B5000FFF7CDFB802219491948FFF7C8FB194838
:102B60000068006820F008001649096808601648E7
:102B70000068006820F008001349096808601348DD
:102B80000068006820F008001049096808601048D3
:102B9000FFF784F80F48FFF781F80F48FFF77EF83A
:102BA000FDF7ACFE10BD000064010020C40400204D
:102BB000CC0200204405002014030020C40500209E
:102BC0005C030020A403002004040020640400200F
:102BD000AC010020F40100203C02002070B5054645
:102BE00000264AE0AC5D2D48007820B101280BD0CA
:102BF000022831D131E0AA2C05D100202749A1F8C3
:102C000042000120087035E0552C10D12348B0F85F
:102C10004200012807DB21484078214908701F48FD
:102C200080782049087002201C49087013E01B4876
:102C3000B0F842003F280BDA1848B0F84210B0F85C
:102C40004200401C154AA2F84200501C445402E0C5
:102C50000020124908700DE000BF00200F490870E5
:102C600040210E48401CFDF796FB00200B49A1F8BF
:102C7000420000BF00BF701C86B2402EB2DB802233
:102C800029460948FFF733FB08480068006820F030
:102C9000080006490968086070BD00008806002029
:102CA00044010020450100205C0300206404002052
:102CB00010B500224FF480410148FEF71BFA10BD09
:102CC000000C024010B5012291030248FEF712FAEF
:102CD00010BD0000000C024008B500BF00200090AD
:102CE0001A48006840F40010184908600846006857
:102CF00000F40010009000BF00BF00BF0020009053
:102D00000846006840F4800008600846006800F447
:102D10008000009000BF00BF002211460C20FEF78B
:102D20007DFA0C20FEF766FA002211461020FEF70D
:102D300075FA1020FEF75EFA002211463920FEF7E0
:102D40006DFA3920FEF756FA08BD0000303802400F
:102D500000B587B0142102A8FDF73FFB00BF00209B
:102D600001904048006840F004003E490860084671
:102D7000006800F00400019000BF00BF00BF002009
:102D800001900846006840F080000860084600682E
:102D900000F08000019000BF00BF00BF0020019044
:102DA0000846006840F0010008600846006800F02E
:102DB0000100019000BF00BF00BF00200190084645
:102DC000006840F0100008600846006800F010003D
:102DD000019000BF00BF00BF0020019008460068BE
:102DE00040F0080008600846006800F00800019004
:102DF00000BF00BF00224FF400511B48FEF77AF9D4
:102E000000224FF400611948FEF774F900224FF4D4
:102E100060411748FEF76EF94FF400500290012010
:102E2000039000200490059002A90F48FEF75EF879
:102E30004FF4006002900120039000200490059060
:102E400002A90A48FEF752F84FF4604002900120B0
:102E5000039000200490059002A90548FEF746F86B
:102E600007B000BD303802400008024000100240A8
:102E7000000C024000B595B0002011901290139004
:102E800014900F9010901C2108A8FDF7A6FA20219D
:102E90006846FDF7A2FA2B482B490860A720486036
:102EA00000212948816044F61F61C1600021016151
:102EB000416180218161FEF741FE08B1FDF7B5FD5A
:102EC0004FF48050119011A91F48FEF73BFF08B145
:102ED000FDF7ABFD1C48FFF726F908B1FDF7A5FD8E
:102EE00000200F9010900FA91748FEF7CDFD08B1F4
:102EF000FDF79BFD60200890002009900A900B9040
:102F00000C900D900E90002208A90F48FFF789F849
:102F100008B1FDF78AFD0020009001900290039017
:102F200004904FF400500590002007906946064831
:102F3000FEF770FD08B1FDF778FD0348FFF740F894
:102F400015B000BD000001406401002000B587B04D
:102F500000200390049005900690019002904FF09D
:102F60008040144908605320486000211148816066
:102F700042F21071C160002101618161FEF7DEFD46
:102F800008B1FDF752FD4FF48050039003A90948A2
:102F9000FEF7D8FE08B1FDF748FD00200190029031
:102FA00001A90448FEF770FD08B1FDF73EFD07B02A
:102FB00000BD0000AC01002000B587B000200390E8
:102FC00004900590069001900290144814490860FE
:102FD0005320486000211248816040F2E731C1600F
:102FE000002101618161FEF7A9FD08B1FDF71DFD1A
:102FF0004FF48050039003A90948FEF7A3FE08B1DF
:10300000FDF713FD00200190029001A90448FEF78E
:103010003BFD08B1FDF709FD07B000BD000400400D
:10302000F401002000B587B00020039004900590C3
:1030300006900190029015481549086042F2CF00B1
:10304000486000211248816041F28831C16000214E
:1030500001618161FEF772FD08B1FDF7E6FC4FF4F6
:103060008050039003A90A48FEF76CFE08B1FDF7F3
:10307000DCFC00200190029001A90548FEF704FD48
:1030800008B1FDF7D2FC07B000BD00000008004009
:103090003C02002010B50B480B4908604FF4E130AA
:1030A0004860002108488160C16001610C214161D4
:1030B00000218161C161FFF72FFB08B1FDF7B5FC6D
:1030C00010BD0000001001408402002010B50B4824
:1030D0000B4908604FF4E1304860002108488160E6
:1030E000C16001610C21416100218161C161FFF773
:1030F00013FB08B1FDF799FC10BD0000004400402F
:10310000CC02002010B50B480B4908604FF4E130A9
:103110004860002108488160C16001610C21416163
:1031200000218161C161FFF7F7FA08B1FDF77DFC6D
:1031300010BD0000004800401403002010B50B48EB
:103140000B4908604FF4E130486000210848816075
:10315000C16001610C21416100218161C161FFF702
:10316000DBFA08B1FDF761FC10BD0000001401405E
:103170005C03002010B500224FF400610148FDF708
:10318000B9FF10BD0010024010B50122D102024863
:10319000FDF7B0FF10BD00000010024000BFFEE7C9
:1031A00000BFFEE7704700002DE9FF4105460E46CF
:1031B00025B10A2D02DC0EB10A2E01DDBDE8FF812A
:1031C000681EC7B2701EC4B2354850F8370002906E
:1031D000334800EBC70040680390324850F8340091
:1031E0000090304800EBC400406801902E48007801
:1031F000012808D12D4850F8340000902B4800EBEE
:10320000C40040680190FFF753FDDDE9020100F0C2
:103210004BFFB420FDF76AFB00BF00F03BFF002826
:10322000FBD000F0F3F8FFF7AFFF6420FDF75EFB83
:1032300000BF00F02FFF0028FBD000F0F1F8642061
:10324000FDF754FB00BF00F025FF0028FBD0DDE9AF
:10325000000100F029FF9620FDF748FB00BF00F0B9
:1032600019FF0028FBD000F0D1F89620FDF73EFBB7
:1032700000BF00F00FFF0028FBD0FFF77BFF00F03E
:10328000CFF800F06DFF6420FDF730FB00BF00F0C9
:1032900001FF0028FBD0FFF715FD00BF8EE70000FF
:1032A000E80000205800002060010020A00000205D
:1032B0002DE9FF4106460F4626B10A2E02DC0FB16A
:1032C0000A2F01DDBDE8FF81701EC4B2781EC5B2B1
:1032D000394850F834000290374800EBC400406889
:1032E0000390354850F835000090334800EBC50096
:1032F0004068019031480078012811D1304850F8D9
:10330000340002902E4800EBC400406803902C4823
:1033100050F8350000902A4800EBC5004068019045
:10332000FFF7C6FCDDE9020100F0BEFEB420FDF7A8
:10333000DDFA00BF00F0AEFE0028FBD000F066F81A
:10334000FFF722FF6420FDF7D1FA00BF00F0A2FED4
:103350000028FBD000F064F86420FDF7C7FA00BF36
:1033600000F098FE0028FBD0DDE9000100F09CFE93
:103370009620FDF7BBFA00BF00F08CFE0028FBD0C2
:1033800000F044F86420FDF7B1FA00BF00F082FEBF
:103390000028FBD0FFF7EEFE00F042F800F0E0FE60
:1033A0006420FDF7A3FA00BF00F074FE0028FBD0F4
:1033B000FFF788FC00BF85E758000020600100206F
:1033C000A0000020704700009FED0B1AF0EE410AAC
:1033D0009FED0A1AC0EE011A9FED092A9FED091A06
:1033E00001EE821AF0EE410ABCEEE01A11EE100A6C
:1033F0000549096848637047000000000000344335
:103400000000FA440000FA436401002000B50348BC
:1034100090ED000AFFF7D8FF00BD0000400100203A
:1034200000B5034890ED000AFFF7CEFF00BD000095
:103430003C01002010B5FDF769FE10BD00B593B04A
:10344000302107A8FCF7C9FF142102A8FCF7C5FF2B
:1034500000BF002001902448006840F080502249BD
:1034600008600846006800F08050019000BF00BF6F
:1034700000BF002001901D48006840F480401B49B7
:1034800008600846006800F48040019000BF00BF5B
:10349000012007900004089002200D9041050E9134
:1034A00004210F91A8211091022111910421129160
:1034B00007A8FEF745F808B1FDF7B7FA0F2002900C
:1034C00002200390002004904FF4A05005904FF488
:1034D00080500690052102A8FDF7F2FE08B1FDF725
:1034E000A4FA13B000BD0000403802400070004054
:1034F0000348006840F4700001490860704700000C
:1035000088ED00E010B50248FEF7A3FC10BD0000F6
:10351000AC01002010B50248FEF79BFC10BD000076
:10352000F401002010B50248FEF793FC10BD000026
:103530003C02002010B502682D4B98420ED0B0F12D
:10354000804F0BD02B4B984208D02B4B984205D084
:103550002A4B984202D02A4B984203D122F07002A3
:103560004B681A43224B984220D0B0F1804F1DD0B7
:10357000204B98421AD0204B984217D01F4B9842AC
:1035800014D01F4B984211D01E4B98420ED01E4BA8
:1035900098420BD01D4B984208D01D4B984205D045
:1035A0001C4B984202D01C4B984203D122F440722B
:1035B000CB681A4322F080034C6943EA040202609C
:1035C0008B68C3620B688362094B984202D00C4B34
:1035D000984201D10B69036301234361036903F03E
:1035E00001031BB1036923F00103036110BD000057
:1035F000000001400004004000080040000C0040B2
:1036000000040140004001400044014000480140E6
:1036100000180040001C00400020004030B501F0C0
:103620001F05012404FA05F3046A9C430462046A3A
:1036300001F01F0502FA05F52C43046230BD30B5D8
:103640000C46816821F47F4142EA03252543294342
:10365000816030BD0A46816821F0700142F00703A5
:10366000194381607047000030B5026A056A25F091
:10367000010505624368846924F0700424F00304A2
:103680000D682C4322F002028D682A43104DA84297
:1036900000D103E00F4DA84206D100BF22F008027E
:1036A000CD682A4322F00402094DA84202D0094DF8
:1036B000A84207D123F4807323F400734D692B4390
:1036C0008D692B43436084614D684563026230BD60
:1036D000000001400004014030B5026A056A25F08F
:1036E000100505624368846924F4E04424F44074BE
:1036F0000D6844EA052422F020028D6842EA051292
:10370000124DA84200D103E0114DA84207D100BFDD
:1037100022F08002CD6842EA051222F040020B4DF1
:10372000A84202D00A4DA84209D123F4806323F4B1
:1037300000634D6943EA85038D6943EA850343606D
:1037400084614D688563026230BD00000000014065
:103750000004014030B5026A056A25F480750562EF
:103760004368C46924F0700424F003040D682C43FA
:1037700022F400728D6842EA0522124DA84200D15F
:1037800003E0114DA84207D100BF22F40062CD68CA
:1037900042EA052222F480620A4DA84202D00A4D74
:1037A000A84209D123F4805323F400534D6943EA1E
:1037B00005138D6943EA05134360C4614D68C56311
:1037C000026230BD000001400004014030B5036AD0
:1037D000056A25F4805505624468C26922F4E04216
:1037E00022F440720D6842EA052223F400538D68EA
:1037F00043EA0533084DA84202D0084DA84204D13F
:1038000024F480444D6944EA85144460C2614D68E3
:103810000564036230BD0000000001400004014067
:1038200030B50B461446026A056A25F001050562AB
:10383000816921F0F00141EA041122F00A021A43E1
:103840008161026230BD30B50B461446026A056ADA
:1038500025F010050562816921F4704141EA0431C7
:1038600022F0A00242EA03128161026230BD000030
:1038700070B50546002652E0AC5D3148007820B1B5
:1038800001280BD0022839D139E0AA2C05D100201B
:103890002B49A1F84200012008703DE0552C18D1B9
:1038A0002748B0F8420002280FDB25484078254918
:1038B000087023488078244908702148C07823493B
:1038C00008701F4800792249087002201C490870BE
:1038D00013E01B48B0F842003F280BDA1848B0F854
:1038E0004210B0F84200401C154AA2F84200501C99
:1038F000445402E00020124908700DE000BF00208F
:103900000F49087040210E48401CFCF744FD002080
:103910000B49A1F8420000BF00BF701C86B2402EC8
:10392000AADB802229460B48FEF7E1FC0A48006822
:10393000006820F0080008490968086070BD0000B0
:103940004406002038010020390100203A010020FF
:103950003B010020140300200404002070B505463C
:10396000AC6B0020E085E0842046FEF733FD70BD9F
:1039700070B506460025B46B20684069C0F3C015D9
:1039800094F84100212805D125B10020E08420468B
:1039900000F0C8F820684069C0F3801594F8420030
:1039A000222805D125B10020E085204600F074F8DA
:1039B000606C40F0100060642046FEF70BFD70BDA7
:1039C00070B50546AC6B2868006800F4807000286C
:1039D00042D1E08500BF00BF21680C3151E8001FD3
:1039E00021F4807021680C3141E80002002AF3D1F3
:1039F00000BF00BF00BF2168143151E8001F21F053
:103A000001002168143141E80002002AF3D100BF0F
:103A100000BF00BF2168143151E8001F21F04000B1
:103A20002168143141E80002002AF3D100BF2020B0
:103A300084F84200206B01280ED100BF00BF21682E
:103A40000C3151E8001F21F0100021680C3141E8D1
:103A50000002002AF3D100BF00206063206B012820
:103A600004D1A18D2046FEF77BFC02E02046FEF744
:103A7000FBFF70BD70B50546AC6B01206063206B29
:103A8000012805D1A08D41082046FEF769FC02E01F
:103A90002046FEF7EAFF70BD00BF00BF02680C328F
:103AA00052E8002F22F4907102680C3242E80013B1
:103AB000002BF3D100BF00BF00BF0268143252E8F0
:103AC000002F22F001010268143242E80013002B9B
:103AD000F3D100BF016B01290ED100BF00BF026806
:103AE0000C3252E8002F22F0100102680C3242E83A
:103AF0000013002BF3D100BF202180F842100021D9
:103B00000163704710B504462068C06820F040008B
:103B10002168C860202084F841002046FFF705F89E
:103B2000002010BD00BF00BF02680C3252E8002F19
:103B300022F0C00102680C3242E80013002BF3D1DE
:103B400000BF202180F841107047F8B5044694F872
:103B50004200222875D1A068B0F5805F0CD12069A1
:103B600050B90025A66A20684068C0F3080030807C
:103B7000A06A801CA06215E0A56A0026A068B0F5C6
:103B8000805F03D0A06828B9206918B92068406810
:103B9000287004E02068406800F07F002870A06A68
:103BA000401CA062E08D401E80B2E085002846D116
:103BB0002068C06820F020002168C8602068C068C4
:103BC00020F480702168C8602068406920F00100FE
:103BD00021684861202084F8420000206063206B47
:103BE000012826D10020206300BF00BF21680C31CE
:103BF00051E8001F21F0100021680C3141E800025B
:103C0000002AF3D100BF2068006800F010001028DF
:103C10000AD100BF00200090206800680090206852
:103C20004068009000BF00BFA18D2046FEF798FBC2
:103C300002E02046FEF718FF0020F8BD01E000205A
:103C4000FBE70220F9E700002DE9F84F0446206861
:103C5000006920F44050E168084321680861216947
:103C6000A068084361690843E1690843009020683F
:103C7000C06849F20C618843009908432168C86014
:103C80002068406920F44070A169084321684861B8
:103C900076492068884203D075492068884203D15C
:103CA000FDF7E6FB814602E0FDF7D2FB8146E069C5
:103CB000B0F5004F6CD102206168A0FB01500346B3
:103CC0001920A9FB007001462A463846FCF7ECFA99
:103CD0006421B0FBF1F04FEA001A02206168A0FBFA
:103CE00001510B461920A9FB00712A463846FCF702
:103CF000DBFA834602206168A0FB015003461920CD
:103D0000A9FB00712A463846FCF7CEFA6421B0FBC5
:103D1000F1F000EBC00101EB0010ABEB80003221B1
:103D200001EBC0006421B0FBF1F000F0F8000AEBF9
:103D3000400A02206168A0FB015003461920A9FB3C
:103D4000007001462A463846FCF7AEFA8346022048
:103D50006168A0FB015003461920A9FB00712A46A7
:103D60003846FCF7A1FA6421B0FBF1F000EBC0018A
:103D700001EB0010ABEB8000322101EBC0006421AD
:103D8000B0FBF1F000F007005044216888606AE061
:103D900004206168A0FB015003461920A9FB0070B4
:103DA00001462A463846FCF77FFA824604206168BD
:103DB000A0FB015003461920A9FB007001462A46CA
:103DC0003846FCF771FA6421B0FBF1F000EBC0015A
:103DD00001EB0010AAEB8000322101EB00106421FE
:103DE000B0FBF1F000F0F00A04206168A0FB017064
:103DF00003461920A9FB00513A462846FCF754FA1D
:103E00006421B0FBF1F00AEB001A04206168A0FB0A
:103E100001510B461920A9FB00712A463846FCF7D0
:103E200043FA834604206168A0FB01500346192031
:103E3000A9FB007001462A463846FCF735FA642192
:103E4000B0FBF1F000EBC00101EB0010ABEB800028
:103E5000322101EB00106421B0FBF1F000F00F0003
:103E6000504421688860BDE8F88F000000100140D0
:103E70000014014077B581B0044615460298A0624F
:103E8000A58500206064222084F842002848E16B68
:103E9000C8632848E16B08642748E16BC8640020C8
:103EA000E16B086502AE32682368191D2B46E06B92
:103EB000FCF7BEFF00BF0020009020680068009063
:103EC00020684068009000BF00BF206970B100BF4B
:103ED00000BF21680C3151E8001F41F48070216857
:103EE0000C3141E80002002AF3D100BF00BF00BF3F
:103EF0002168143151E8001F41F00100216814319C
:103F000041E80002002AF3D100BF00BF00BF2168D2
:103F1000143151E8001F41F040002168143141E89C
:103F20000002002AF3D100BF002004B070BD0000E1
:103F3000C1390008753A000871390008014691F846
:103F40004100212828D18868B0F5805F0BD108692D
:103F500048B90A6A1088C0F308000B685860086AFC
:103F6000801C086205E00B6A581C086218780B6810
:103F70005860C88C401E80B2C88458B90868C068B0
:103F800020F080000B68D8600868C06840F04000EE
:103F90000B68D860002070470220FCE72DE9F84349
:103FA00004460D4617469846089E31E0701C70B3D3
:103FB000FDF7A6F8A0EB0800B04200D816B9032020
:103FC000BDE8F8832068C06800F00400F8B1802DD7
:103FD0001ED0402D1CD020680068C0F3C000B0B1D6
:103FE00000BF0020009020680068009020684068B2
:103FF000009000BF00BF2046FFF74EFD0820606420
:1040000000BF002084F8400000BF0120D8E7FFE790
:10401000206800682840A84201D1012000E000206B
:10402000B842C3D00020CBE710B50248FEF700FA33
:1040300010BD0000CC02002010B50248FEF7F8F9D0
:1040400010BD00001403002010B50248FEF7F0F97F
:1040500010BD00005C03002000BFFEE702480068BE
:10406000C0F30220704700000CED00E010B50028FE
:1040700004DB0A07130E054A135406E00A07140E60
:10408000034A00F00F031B1FD45410BD00E400E0EE
:1040900018ED00E00348006808B9012070470020CF
:1040A000FCE700004C0100203EB504460D4601200F
:1040B0002849097809B1012100E00021CDE900413A
:1040C0000290254803782548028800210120FCF74A
:1040D0005FFC0A20FCF70AFC00BFFFF7DBFF0028AB
:1040E000FBD001201B49097809B1012100E0002122
:1040F000CDE9004102901848037818480288012150
:104100000220FCF745FC0A20FCF7F0FB00BFFFF79C
:10411000C1FF0028FBD001200E49097809B1012117
:1041200000E00021CDE9005102900B4803780B48D4
:10413000028801210320FCF72BFC0A20FCF7D6FBA8
:1041400000BFFFF7A7FF0028FBD00020FCF756FCBC
:104150003EBD00005400002052000020500000200E
:104160000EB501202D49097809B1012100E0002197
:104170000022CDE9002102902948037829480288CD
:1041800000210120FCF704FC0A20FCF7AFFB00BF74
:10419000FFF780FF0028FBD001202049097809B1F2
:1041A000012100E000210022CDE9002102901C48FD
:1041B00003781C48028801210220FCF7E9FB0A2051
:1041C000FCF794FB00BFFFF765FF0028FBD0012040
:1041D0001249097809B1012100E000210022CDE94E
:1041E000002102900E4803780E4802880121032026
:1041F000FCF7CEFB0A20FCF779FB00BFFFF74AFF74
:104200000028FBD00020FCF7F9FB0A20FCF76EFB2E
:1042100000BFFFF73FFF0028FBD00EBD5400002079
:104220005200002050000020FCF77CFFFFF706F949
:10423000FEF78EFDFEF750FDFEF71CFEFEF72AFF8F
:10424000FEF744FFFEF75EFFFEF778FFFEF77EFE07
:10425000FEF7B2FEFEF7E6FEFEF76AFC4FF47A7058
:10426000FCF730FEFCF773FB00BFFEE738B50446F1
:104270000D460020009000900DE09DF800002118F0
:104280004FF0FF3301220648FEF7F0FB9DF80000D7
:10429000401CC0B200909DF80000A842EDDB38BD84
:1042A000CC0200204FF04070E1EE100A704700068B
:1042B00010160006101600000000000000000102A9
:1042C00003040607080900000000010203040000BF
:1042D000F04200080000002064010000C401000852
:1042E000A043000864010020CC0B0000200200085D
:1042F0004132104201034124F41A2C49294C235025
:10430000144BD840084B523508230429236C201A3B
:1043100074181A3A0829184BA41F184B8E2B182909
:104320000829182908291823A00F234C3623D4174D
:1043300023B83D1A0C084BB42D484B8845401A84CD
:104340003023DC1E238025233C281BF03CD422276D
:1043500023EC2C23442F1B583470220723685B2343
:10436000F2121AFE081AAA301B945C04222A1AF8C8
:10437000081A7E64290823C40923420E4B7C1508C1
:104380004B342108294C1AA60823A4381A0A946130
:104390003370420214434BFFFF0411130106000067
:040000050800018965
:00000001FF
