:020000040800F2
:10000000D0090020290200082B1F0008F91A000857
:10001000291F00081F040008152500080000000023
:100020000000000000000000000000002F1F00087A
:10003000C1040008000000002D1F0008311F000847
:10004000430200084302000843020008430200087C
:10005000430200084302000843020008430200086C
:10006000430200084302000843020008430200085C
:10007000210400084302000843020008430200086C
:100080002D04000843020008430200084302000850
:10009000430200084302000843020008430200082C
:1000A000430200084302000843020008430200081C
:1000B000D91F0008E51F0008F11F000843020008CF
:1000C00043020008430200084302000843020008FC
:1000D0004302000843020008F1240008FD24000840
:1000E00043020008430200084302000843020008DC
:1000F00043020008430200084302000843020008CC
:1001000043020008430200084302000843020008BB
:1001100043020008430200084302000843020008AB
:1001200043020008390400084302000843020008A3
:10013000430200084302000843020008430200088B
:10014000430200084302000843020008430200087B
:100150004302000843020008430200080925000882
:10016000430200084302000843020008430200085B
:100170004302000843020008430200080000000098
:10018000430200084302000800F002F800F03CF8C7
:100190000AA090E8000C82448344AAF10107DA45E2
:1001A00001D100F031F8AFF2090EBAE80F0013F0F8
:1001B000010F18BFFB1A43F001031847D8230000B2
:1001C000F8230000103A24BF78C878C1FAD8520743
:1001D00024BF30C830C144BF04680C6070470000C1
:1001E0000023002400250026103A28BF78C1FBD840
:1001F000520728BF30C148BF0B6070471FB502F0DF
:10020000B3F91FBD10B510BD00F0CFF81146FFF7D0
:10021000F5FF02F090F900F0EDF803B4FFF7F2FFFC
:1002200003BC00F0F5F80000094880470948004782
:10023000FEE7FEE7FEE7FEE7FEE7FEE7FEE7FEE796
:10024000FEE7FEE704480549054A064B70470000F3
:10025000C91F000889010008D0030020D009002030
:10026000D0050020D005002053EA020C00F0698080
:100270002DE9F04B4FF00006002B1FBFB3FA83F5BA
:1002800003FA05F424FA05F65E4012BF1643B2FAEB
:1002900082F502FA05F4C5F120051EBF22FA05FC1D
:1002A00044EA0C04203556EA044C4FEA144418BFC3
:1002B000641C4FF000084FF00009904271EB030CF2
:1002C00039D3002919BFB1FA81F701FA07F6B0FA5C
:1002D00080F700FA07F6C7F120071EBF20FA07FCD7
:1002E00046EA0C062037B6FBF4FCA7EB0507103FE7
:1002F00007F01F0BCBF120060CFA0BFB2CFA06F6CD
:1003000044BFB3460026202FA4BF5E464FF0000B2B
:100310005BEA060C08BF4FF0010B19EB0B09ABFBB6
:10032000027C48EB0608C01B06FB02CC0BFB03CC8F
:1003300071EB0C01C1E70B46024641464846BDE859
:10034000F08B13B54FF000004FF00001AFF30080C9
:10035000BDE81C4070474FF0000200B513469446BC
:100360009646203922BFA0E80C50A0E80C50B1F10D
:100370002001BFF4F7AF090728BFA0E80C5048BF21
:100380000CC05DF804EB890028BF40F8042B08BFBF
:10039000704748BF20F8022B11F0804F18BF00F8BB
:1003A000012B7047704770477047754600F02CF876
:1003B000AE4605006946534620F00700854618B052
:1003C00020B5FFF73FFFBDE820404FF000064FF09B
:1003D00000074FF000084FF0000B21F00701AC467A
:1003E000ACE8C009ACE8C009ACE8C009ACE8C00999
:1003F0008D46704710B50446AFF300802046BDE837
:100400001040FFF70ABF000000487047700300204B
:1004100001491820ABBEFEE7260002007047FEE748
:10042000014800F0ABB80000B0020020014800F025
:10043000A5B8000050020020014800F09FB800005D
:100440001003002001681823CAB2103AB2FBF3F27D
:10045000054B6FF30901032A9B5CC36500D9091D95
:1004600081650846704700007225000810B50146F6
:1004700000208B698A6A4FF0C07453B1B3F5005FF6
:1004800015D072B1012A0CD0022A0AD0032A09D150
:1004900004E01AB1012A06D0022A03D1C96AC901AF
:1004A00000D5012010BDC96AA142FAD010BD002AB2
:1004B000F7D0012AF2D0022AF3D0032AF3D010BDDC
:1004C000704772B6FEE72DE9F0410446876D00F0F3
:1004D0008DFA064694F835000025022806D08020C3
:1004E000606584F834500120BDE8F081206801681F
:1004F00021F0160101602068416921F0800141610D
:10050000206C08B9A06C20B12068016821F00801B6
:1005100001602068016821F0010101600CE000F039
:1005200065FA801B052807D920206065032084F820
:10053000350084F83450D7E720680068C007EED152
:1005400094F85C103F208840B860012084F83500A2
:1005500084F834500020C7E790F83510022903D002
:100560008021416501207047052180F83510006821
:10057000016821F001010160002070472DE9F84376
:1005800004464FF00009CDF8009063484FF416512F
:10059000A56D0068B0FBF1F72E6894F85C10082098
:1005A00000FA01F131420FD021680A6852070BD5D9
:1005B0000A6822F004020A6094F85C108840A8607F
:1005C000606D40F00100606594F85C104FF0010828
:1005D00008FA01F0304208D021684969090604D5BB
:1005E000A860606D40F00200606594F85C10042023
:1005F0008840304208D021680968890704D5A8607E
:10060000606D40F00400606594F85C101020884034
:10061000304218D021680968090714D5A8602068FD
:100620000168490304D50068000308D5A16C07E000
:100630000168C90503D4016821F008010160216C3B
:1006400009B12046884794F85C1020208840304249
:1006500031D021680968C9062DD5A86094F8350005
:1006600005282068016806D0490347D500680003C3
:100670001DD4616C1CE021F0160101602068416905
:1006800021F080014161206C08B9A06C20B1206884
:10069000016821F00801016094F85C103F20884057
:1006A000A86084F8358084F83490216D1FE0E16BF8
:1006B00009B120468847606D00282BD0606DC007C7
:1006C00014D0052084F835002068016821F001016C
:1006D00001600098401C0090B84203D82068006870
:1006E000C007F6D184F8358084F83490E16C002995
:1006F00010D001B02046BDE8F04308470168C905A5
:10070000D5D4016821F01001016084F8358084F8A7
:100710003490CCE7BDE8F8830C0000202DE9F041CF
:10072000044600F063F906465CB1022084F8350007
:10073000002584F834502068016821F0010101602F
:100740000DE00120BDE8F08100F050F9801B052884
:1007500005D920206065032084F83500F2E7206881
:100760000068C007F0D12268116820480140D4E930
:1007700001031843D4E9033633431843636918432C
:10078000A3691843E3691843236A18430843616A5D
:10079000042903D1D4E90B131943084310602068DE
:1007A0004069666A20F0070130460E43012704289D
:1007B0000CD1A06A0643E06A40B12046FFF756FE1E
:1007C00020B14020606584F83570BAE72068466142
:1007D0002046FFF737FE94F85C203F21914081606E
:1007E000656584F835700020ACE700003F8010F0AC
:1007F0002DE9F84FDFF8BCA10022012503264FF0B8
:100800000F090AF1040BAAF1040E00BF0B6805FAE8
:1008100002F42340A34270D10F7907F00307012FA0
:1008200001D0022F16D187684FEA420806FA08FC69
:1008300027EA0C07D1F80CC00CFA08FC4CEA070CAC
:10084000C0F808C04768A7430C79C4F3001494406B
:100850003C4344600C79E443A4070AD0C4684FEADF
:10086000420C06FA0CF7BC438F6807FA0CF72743D3
:10087000C7600C7904F00304022C12D1D40800EBF9
:10088000840CDCF820405707FF0E09FA07F824EA29
:100890000804D1F8108008FA07F848EA0408CCF8F0
:1008A000208004684FEA420C06FA0CF7BC430F792B
:1008B00007F0030707FA0CF7274307604C6814F4A6
:1008C000403F70D03C4C276847F48047276024683D
:1008D00022F0030704F480440094384C07EB040C26
:1008E000DCF8084897074FEA177809FA08F7BC437D
:1008F000334FB84202D1002724E054E0314FB842D0
:1009000001D101271EE0304FB84201D1022719E082
:100910002E4FB84201D1032714E02D4FB84201D128
:1009200004270FE02B4FB84201D105270AE02A4FD8
:10093000B84201D1062705E0284FB84201D1072768
:1009400000E0082707FA08F72743CCF80878DAF818
:1009500000405746D1F804C09C435FEACC2C00D538
:100960001C433C60DBF800405F46D1F804C09C4368
:100970005FEA8C2C00D51C433C60DEF800407746D3
:10098000D1F804C09C435FEA8C3C00D51C433C601A
:10099000084F083F3C68D1F804C09C435FEACC3C58
:1009A00000D51C433C60521C102AFFF42FAFBDE859
:1009B000F88F0000083C01404438024000300140FC
:1009C000000002400004024000080240000C024007
:1009D000001002400014024000180240001C0240B7
:1009E0000AB1816170470904FBE700000148806893
:1009F000704700000000002002488168027811441E
:100A000081607047000000200B4810B5016841F478
:100A100000710160016841F480610160016841F486
:100A200080710160032000F06FF80F2000F006F8DD
:100A300000F024F8002010BD003C024070B50D4DC0
:100A400004464FF47A712878B1FBF0F00A4909683E
:100A5000B1FBF0F000F00AFB48B9102C07D20022DD
:100A60002146501E00F030F800206C6070BD01205F
:100A700070BD0000000000200C0000200A4808B5EE
:100A8000016841F480410160006800F480400090FA
:100A90000548001F016841F080510160006800F0C6
:100AA0008050009008BD000044380240002809DB57
:100AB00000F01F02012191404009800000F1E02078
:100AC000C0F8001170470000F0B40E4B1B680C46D4
:100AD000C3F30223C3F10705042D00D90425191D12
:100AE000072901D2002300E0DB1E012606FA05F1EA
:100AF000491E214099409E40761E16403143F0BC6D
:100B000001F009BD0CED00E0064900F0070208689D
:100B10004FF6FF03184040EA0220034A10430860E2
:100B2000704700000CED00E00000FA052DE9F047E9
:100B30000E46050065D0DFF81481D8F80000F7B242
:100B400000F00700B04207D288F80070D8F8000023
:100B500000F00700B04254D128683D4C810712D5FF
:100B6000400703D5206840F4E05020602878000753
:100B700003D5206840F4604020602068A96820F018
:100B8000F000084320602878C0072DD030496868FD
:100B90000839012812D0022813D0032811D009687F
:100BA000890700292DDA216821F003010143216022
:100BB000FFF71CFF814641F2883A0EE0096889037D
:100BC000EFE709688901ECE7FFF710FFA0EB0901E7
:100BD000514502D90320BDE8F0872068696800F01C
:100BE0000C00B0EB810FEFD1D8F80010404601F0B7
:100BF0000701B14207D90770006800F00700B04252
:100C000001D00120E7E72878400705D52068E9688A
:100C100020F4E050084320602878000706D52068BB
:100C2000296920F4604040EAC100206000F038F8F3
:100C30002168084AC1F30311515CC84006490860A5
:100C400006480068FFF7FAFE0020C4E7003C0240B7
:100C5000083802407A2500080C000020040000201B
:100C60000448054900680968044AC1F38221515CBF
:100C7000C84070470C000020083802408A25000850
:100C80000448054900680968044AC1F34231515CCF
:100C9000C84070470C000020083802408A25000830
:100CA000154810B5006810F00C02144813D041101C
:100CB000042A0FD0082A0ED10F4C241F2268236863
:100CC00002F03F025B0207D52068C0F38810A0FB4A
:100CD000010106E0084610BD2168C1F38811A1FB9F
:100CE00000010023FFF7C0FA2168C1F30141491C4C
:100CF0004900B0FBF1F010BD083802400024F400B8
:100D00002DE9F84F04006ED02078DFF84C93C0072F
:100D1000A9F104054AD009F104000168C1F3810179
:100D2000012908D00068C0F3810002280AD1D9F84F
:100D30000000400206D52868800337D56068002887
:100D4000E1D033E06068B0F5803F10D0B0F5A02F5F
:100D5000286810D020F480302860286820F4802093
:100D600028606068A8B1FFF741FE06460DE02868DC
:100D700040F48030F4E740F480202860F7E700BFBB
:100D8000FFF734FE801B642873D828688003F7D5EA
:100D90000CE0FFF72BFE064605E000BFFFF726FE3E
:100DA000801B6428F0D828688003F7D42078DFF807
:100DB000AC8280074FF0000A3ED5A748001D0168AD
:100DC00011F00C0F08D00068C0F3810002280BD18D
:100DD000D9F80000400207D42868800716D5E068DB
:100DE000012800D112E033E1E068B8B10120C8F871
:100DF0000000FFF7FBFD064605E000BFFFF7F6FD2C
:100E0000801B0228C0D828688007F7D52868216988
:100E100020F0F80040EAC10028600DE0C8F800A00A
:100E2000FFF7E4FD064604E0FFF7E0FD801B022823
:100E30001FD828688007F7D42078000722D5864F6E
:100E400087486169703771B101210160FFF7CEFDFC
:100E5000064604E0FFF7CAFD801B022809D838685F
:100E60008007F7D50EE0C0F800A0FFF7BFFD0646EB
:100E700005E082E0FFF7BAFD801B02287DD83868C4
:100E80008007F7D42078400768D5DFF8CCB1002779
:100E90000BF13C0BDBF80000C0000BD4DBF80010BA
:100EA00041F08051CBF80010DBF80000012700F082
:100EB000805000906B4E3068C00510D4306840F40C
:100EC00080703060FFF792FD009005E0FFF78EFD27
:100ED0000099401A022850D83068C005F6D55E4EF9
:100EE000A0686C3601280FD00528306810D020F09B
:100EF00001003060306820F004003060A068B8B1B4
:100F0000FFF774FD00900FE0306840F00100F4E757
:100F100040F004003060F7E7FFF768FD0099411AE0
:100F200041F28830814266D830688007F4D50EE0FF
:100F3000FFF75CFD009007E0FFF758FD0099411AAC
:100F400041F28830814256D830688007F4D42FB1FE
:100F5000DBF8001021F08051CBF80010A069C8B375
:100F60003D49091D0968C1F3810102294AD00228BF
:100F7000504607D0C8F8600000E03CE0FFF736FDBF
:100F800004463BE04746C8F86000FFF72FFD0646E1
:100F900005E000BFFFF72AFD801B02282BD8286838
:100FA0008001F7D4D4E907010843A16A2E4A490811
:100FB00002EB0141626A41EA8211084394F82C1065
:100FC00040EA0161C9F8001001203866FFF70EFD04
:100FD000044606E03EE000BFFFF708FD001B0228C4
:100FE00009D828688001F7D534E000BFFFF7FEFC80
:100FF000001B022802D90320BDE8F88F2868800171
:10100000F4D427E00128F7D0D9F80000E26900F411
:10101000800191421CD1226A00F03F01914217D118
:1010200047F6C071626A0140B1EB821F10D1A26A1B
:101030004FF0FF3300F4403103EB5202B1EB024FAB
:1010400006D194F82C1000F07060B0EB016F01D065
:101050000120D1E70020CFE70438024000004742DA
:10106000800E4742007000400000FFFF10B5401E98
:10107000B0F1807F01D3012010BD4FF0E02460610A
:101080000F21601701F047FA0020A06107202061BE
:10109000002010BD7047704710B590F83C20012A21
:1010A00022D0012280F83C20CA688C6822F4407269
:1010B00022434C6822F4806222430C6822F40062CE
:1010C00022430C6922F4805222434C6922F40052DC
:1010D0002243C969002322F480420A4301684A641A
:1010E00080F83C30002010BD022010BD70B590F893
:1010F0003C20012A32D0012480F83C40022280F8B2
:101100003D2003685A689D6822F070060A683243E1
:101110005A60134B02689A4214D0B2F1804F11D03A
:10112000104B9A420ED0104B9A420BD00F4B9A4262
:1011300008D00F4B9A4205D00E4B9A4202D00E4B6C
:101140009A4204D1496825F080031943916080F8E0
:101150003D40002180F83C10084670BD022070BD63
:10116000000001400004004000080040000C004066
:1011700000040140004001400018004010B5040088
:1011800003D094F83D0010B107E0012010BD00200D
:1011900084F83C00204600F01FF8022084F83D004F
:1011A000211D206800F02AFF012084F8460084F801
:1011B0003E0084F83F0084F8400084F8410084F841
:1011C000420084F8430084F8440084F8450084F821
:1011D0003D00002010BD000008B501682348814291
:1011E00009D12348016841F001010160006800F065
:1011F0000100009008BD1E48001FB1F1804F11D0C2
:101200001C4A91421DD1016841F002010160006851
:10121000002200F00200009001211D20FFF754FC85
:101220001D201FE0016841F00101016000680022FB
:1012300000F00100009011461C20FFF745FC1C2027
:1012400010E00D4A9142D5D1016841F004010160DE
:101250000068002200F00400009002211E20FFF729
:1012600033FC1E20BDE80840FFF720BC0000014011
:1012700044380240000400400008004070B50446B5
:1012800090F83C000025012817D0012684F83C6026
:10129000022084F83D002068826822F0770222F460
:1012A0007F4282600868502838D00DDC20284FD05B
:1012B00005DC90B3102811D14AE0022070BD30281F
:1012C00046D040280AD13BE060282FD070280DD0AE
:1012D000B0F5805F03D0B0F5005F12D0012584F82F
:1012E0003D60002084F83C00284670BDCB68D1E901
:1012F0000121206800F0EEFE2068816841F077014E
:1013000009E0CB68D1E90121206800F0E3FE206804
:10131000816841F480418160E1E719E0CA68496869
:10132000206800F0ABFF5021206806E0CA684968D9
:10133000206800F0B4FF6021206800F0D5FECEE701
:10134000CA684968206800F099FF40212068F4E7E6
:10135000226801461046F0E770472DE9F041044647
:101360000068C66805694FF00007A90713D5B107E3
:1013700011D5F91E0161012020772068806980075E
:10138000204602D0FFF7E8FF04E000F0A9F820466D
:1013900000F03BF92777680716D5700714D5216848
:1013A0006FF004000861022020772068806910F443
:1013B000407F204602D0FFF7CFFF04E000F090F816
:1013C000204600F022F92777280715D5300713D5D6
:1013D00021686FF008000861042020772068C06948
:1013E0008007204602D0FFF7B7FF04E000F078F84E
:1013F000204600F00AF92777E80616D5F00614D53E
:1014000021686FF010000861082020772068C0690B
:1014100010F4407F204602D0FFF79EFF04E000F06A
:101420005FF8204600F0F1F82777E80708D0F007CA
:1014300006D021686FF001000861204600F0E6F850
:10144000280608D5300606D521686FF080000861AF
:101450002046FFF71FFE680608D5700606D52168EE
:101460006FF040000861204600F0D1F8A8060AD5C8
:10147000B00608D521686FF0200008612046BDE85D
:10148000F041FFF708BEBDE8F081000010B586B05E
:10149000044614216846FEF75EFF0E492068884224
:1014A00016D10D480021026842F010020260006867
:1014B00000F0100005904FF4007000900220CDE97C
:1014C00001010120CDE9031069460448FFF790F9B6
:1014D00006B010BD0000014030380240001002404C
:1014E000704770B5044690F83C0000260D46012870
:1014F0000FD0012084F83C006AB1042A1DD0082ACC
:101500002FD00C2A3FD00126002084F83C00304622
:1015100070BD022070BD206800F0EEFD206881697A
:1015200041F0080181612068816921F00401816135
:10153000206881692A69114311E0206800F00CFEDF
:101540002068816941F4006181612068816921F42A
:1015500080618161206881692A6941EA0221816193
:10156000D2E7206800F02EFE2068C16941F0080132
:10157000C1612068C16921F00401C1612068C169AD
:101580002A69114311E0206800F050FE2068C1690B
:1015900041F40061C1612068C16921F48061C161C9
:1015A0002068C1692A6941EA0221C161ACE710B52E
:1015B000040003D094F83D0010B107E0012010BDF5
:1015C000002084F83C00204600F01EF8022084F839
:1015D0003D00211D206800F011FD012084F8460027
:1015E00084F83E0084F83F0084F8400084F841000D
:1015F00084F8420084F8430084F8440084F84500ED
:1016000084F83D00002010BD704770477047704758
:1016100070477047F8B5016804460868CA684B69A6
:1016200010F00F0F4FF0000559D003F0010602F43F
:101630009077374365D0C10705D0D10503D5616CDC
:1016400041F001016164410705D5D90703D0616C00
:1016500041F002016164810705D5D90703D0616CAF
:1016600041F004016164010707D502F02001314314
:1016700003D0616C41F008016164616C00293AD0CB
:10168000800604D5900602D5204600F049FE206869
:101690004069616CC0F38010090700D460B3204634
:1016A00000F017FE20684069400621D520681430FC
:1016B00050E8001F21F0400140E80012002AF5D157
:1016C000E06BA8B16E490165E06BFEF745FF0028AD
:1016D00011D0E06B016D01B0BDE8F0400847830612
:1016E0000FD593060DD52046BDE8F84000F018BE92
:1016F0002046FFF78EFFF8BD2046FFF78AFF65649E
:10170000F8BD266B2023012E7DD1C6067BD5D606DB
:1017100079D508684868009048694FF0020640068D
:1017200041D5E16B086840680004000CE8D0A28D48
:101730008242E5D9E085C869B0F5807F2DD0206868
:101740000C3050E8001F21F4807140E80012002A9C
:10175000F5D12068143050E8001F21F0010140E865
:101760000012002AF5D12068143050E8001F21F043
:10177000400140E80012002AF5D184F84230256388
:1017800020680C3050E8001F21F0100140E80012E2
:10179000002AF5D1E06BFEF796FE6663A08DE18D21
:1017A000401A81B22AE0A08DE18D401A81B2E08D0D
:1017B0000028A5D00029A3D022680C3252E8000FDF
:1017C00020F4907042E80007002FF5D12068143013
:1017D00050E8002F22F0010240E80027002FF5D149
:1017E00084F84230256320680C3050E8002F22F046
:1017F000100240E80023002BF5D166632046FFF776
:1018000007FFF8BDFFE705062BD5150629D594F887
:1018100041002128F5D1A068B0F5805F01D1206991
:10182000B0B1206A411C2162216800784860E08CD8
:10183000401E0004000CE084E3D12068C16821F060
:101840008001C1602068C16841F04001C160D8E7F3
:10185000206A0088C0F308004860206A801C20626B
:10186000E5E74006CDD55006CBD5CA68204622F024
:101870004002CA6084F8413000F03DF9C1E7000041
:10188000C322000870B5040004D094F8410000257C
:1018900010B106E0012070BD84F84050204600F0F1
:1018A00023F8242084F841002068C16821F4005105
:1018B000C160204600F096FD2068016921F4904146
:1018C00001612068416921F02A0141612068C168F5
:1018D00041F40051C1606564202084F8410084F81F
:1018E00042006563002070BD2DE9F04F87B00546CA
:1018F00014216846FEF72FFD7448734ED5F800C0DA
:101900000024724F1438022203210723DFF8C0B1EC
:10191000B4451BD13D6845F010053D603D6805F0BC
:1019200010050595056845F001050560006800F0A3
:1019300001000590CDE9031348028DE815006946C2
:101940005846FEF755FF07B0BDE8F08FDFF88481F9
:10195000DFF878914FF0006AA9F104094FF480662E
:10196000C44536D1D9F800C04CF4003CC9F800C0D9
:10197000D9F8007007F400370597076847F00107AA
:101980000760006800F001000590CDE903130C200A
:101990008DE8150069465846FEF72AFF4F4F4E481E
:1019A0003860C7E901A4C7E903467C61BC61FC61FA
:1019B0003C6238467C62FEF7B1FE08B1FEF781FD5D
:1019C000EF63002211462620BD63FFF77DF8262035
:1019D0003CE0DFF80C81C4453BD1D9F800C04CF4A1
:1019E000802CC9F800C0D9F8007007F4802705974B
:1019F000076847F002070760006800F002000590E2
:101A0000CDE903134FF440608DE815006946354871
:101A1000FEF7EEFE314F3048603760383860C7E976
:101A200001A4C7E903467C61BC61FC613C623846A5
:101A30007C62FEF773FE08B1FEF743FDEF63002200
:101A400011462720BD63FFF73FF82720FFF72EF848
:101A500079E7254B9C45FBD13B6843F020033B6075
:101A60003B6803F020030593036843F0040303601D
:101A7000006800F004000590C0208DE815000820E3
:101A8000CDE9031069461948FEF7B2FE134F184816
:101A9000C03738608005C7E90104C7E903467C61A7
:101AA000BC61FC613C6238467C62FEF737FE08B1DF
:101AB000FEF707FDEF63002211464720BD63FFF7E5
:101AC00003F84720C2E700000010014044380240FC
:101AD00000000240004400408860024050020020A4
:101AE0000048004000040240001401400008024089
:101AF0002864024070477047FEE70000154808B5AB
:101B0000016841F400110160016801F400110091C5
:101B1000016841F4800101600068002200F4800047
:101B2000009011460C20FEF7CFFF0C20FEF7BEFF01
:101B3000002211461020FEF7C7FF1020FEF7B6FF67
:101B4000002211463920FEF7BFFFBDE808403920CA
:101B5000FEF7ACBF303802402DE9F04786B01421C3
:101B60006846FEF7F8FB34480024016841F00401A0
:101B70000160016801F004010591016841F08001F4
:101B80000160016801F080010591016841F00101E7
:101B90000160016801F001010591016841F0100147
:101BA0000160016801F010010591016841F0020136
:101BB0000160016801F002010591016841F008012E
:101BC00001600068DFF8748000F008004FF40055F1
:101BD0000590002229464046FEF702FFDFF860909C
:101BE000AE10002231464846FEF7FAFEDFF854A058
:101BF0004FF46047002239465046FEF7F1FE00954B
:101C00000125CDE90154694640460394FEF7F0FDF5
:101C10000096CDE90154694648460394FEF7E8FD75
:101C20000097CDE90154694650460394FEF7E0FD64
:101C300006B0BDE8F08700003038024000080240DE
:101C400000100240000C024010B596B000240F9422
:101C500010941194129413941C2108A81494FEF764
:101C60007AFB20216846FEF776FB29482749016068
:101C7000A721C0E9011444F61F61C0E903148021C3
:101C8000C0E90541FFF77AFA08B1FEF71AFC4FF4F4
:101C900080500F900FA91E48FFF7F0FA08B1FEF729
:101CA00010FC1B48FFF783FC08B1FEF70AFC1394F5
:101CB00013A917481494FFF719FA08B1FEF701FCAD
:101CC0006020CDE908040A940B940C940D94002232
:101CD00008A90F480E94FFF704FC08B1FEF7F1FBCA
:101CE00000944FF40050CDE9044002940194039411
:101CF000694607480794FFF7CFF908B1FEF7E1FB03
:101D00000348FFF7C3FB16B010BD00000000014000
:101D10001000002010B586B00024164800940194ED
:101D20000294039404944FF0804105940160532180
:101D3000C0E9011442F21071C0E903148461FFF795
:101D40001DFA08B1FEF7BDFB4FF4805000906946C4
:101D50000848FFF793FA08B1FEF7B3FB049404A90F
:101D600004480594FFF7C2F9002801D0FEF7A9FB4B
:101D700006B010BD5800002010B586B000241748EA
:101D8000009401940294039404941349059401600F
:101D90005321C0E9011440F2E731C0E90314846122
:101DA000FFF7ECF908B1FEF78CFB4FF48050009080
:101DB00069460A48FFF762FA08B1FEF782FB04940D
:101DC00004A906480594FFF791F9002801D0FEF711
:101DD00078FB06B010BD000000040040A000002009
:101DE00010B586B00024174800940194029403941F
:101DF000049413490594016042F2CF01C0E9011433
:101E000041F28831C0E903148461FFF7B7F908B1E2
:101E1000FEF757FB4FF48050009069460948FFF7E2
:101E20002DFA08B1FEF74DFB049404A9054805946A
:101E3000FFF75CF9002801D0FEF743FB06B010BDA8
:101E400000080040E80000200C4810B50A49016075
:101E50004FF4E1314160002181600C22C160C0E992
:101E600004128161C161FFF70DFD002803D0BDE8B8
:101E70001040FEF726BB10BD0010014030010020CD
:101E80000C4810B50A4901604FF4E131416000216E
:101E900081600C22C160C0E904128161C161FFF759
:101EA000F1FC002803D0BDE81040FEF70ABB10BDCE
:101EB00000440040780100200C4810B50A49016038
:101EC0004FF4E1314160002181600C22C160C0E922
:101ED00004128161C161FFF7D5FC002803D0BDE881
:101EE0001040FEF7EEBA10BD00480040C0010020CF
:101EF0000C4810B50A4901604FF4E13141600021FE
:101F000081600C22C160C0E904128161C161FFF7E8
:101F1000B9FC002803D0BDE81040FEF7D2BA10BDCE
:101F20000014014008020020FEE7FEE770477047FA
:101F3000FEF762BD30B593B030216846FEF70BFA6C
:101F400014210CA8FEF707FA1D480025016841F08E
:101F500080510160006800F08050119019480168BC
:101F600041F4804101600068022400F48040119037
:101F700001200090000401908001CDE9064008AAEC
:101F80000420A82182E813000B906846FEF7B8FEF3
:101F900008B172B6FEE70CA90F2081E831004FF4BA
:101FA000A0500F904FF48050109005210CA8FEF720
:101FB000BDFD002801D072B6FEE713B030BD0000B1
:101FC00040380240007000400248016841F470014E
:101FD0000160704788ED00E00148FFF7BEB90000DE
:101FE000580000200148FFF7B8B90000A000002009
:101FF0000148FFF7B2B90000E8000020F0B5026820
:10200000294C2A4D2A4E2B4F2B4B4FF0804CA0428F
:1020100009D0604507D0A84205D0B04203D0B842ED
:1020200001D0984204D122F0700E4A6842EA0E02B2
:10203000A0421BD0604519D0A84217D0B04215D09D
:10204000B84213D0984211D01C4DA8420ED01C4D5E
:10205000A8420BD01B4DA84208D01B4DA84205D06A
:102060001A4DA84202D01A4DA84203D122F440755D
:10207000CA682A434D6922F080022A4302608A68B6
:10208000C2620A688262A04201D0984201D1096905
:102090000163012141610169C90703D0016921F090
:1020A00001010161F0BD000000000140000400409A
:1020B00000080040000C00400004014000400140C6
:1020C000004401400048014000180040001C00404E
:1020D0000020004010B5846842EA032224F47F44C3
:1020E0000A432243826010BD826822F070020A43D4
:1020F00042F0070181607047F0B5036A026A22F07E
:102100000102026242688469124E24F073050C6871
:102110002C4323F002058B682B430D4DA84201D0C0
:10212000B04205D123F00807CB683B4323F00403FA
:10213000A84201D0B04205D14D6922F44072154346
:102140008A692A4342608461496841630362F0BD41
:102150000000014000040140F0B5026A036A23F068
:1021600010030362436884690D6824F4E64444EA7A
:1021700005248D6822F0200242EA05120F4D104E10
:10218000A84201D0B04206D1CF6822F0800242EAD4
:10219000071222F04002A84201D0B04207D14D6997
:1021A00023F4406343EA85038D6943EA8503436072
:1021B0008461496881630262F0BD00000000014053
:1021C00000040140F0B5026A036A23F480730362DD
:1021D0004368C46922F4007224F073050C68124E3F
:1021E0002C438D6842EA05220E4DA84201D0B04230
:1021F00006D1CF6822F4006242EA072222F480620C
:10220000A84201D0B04207D14D6923F4405343EABC
:1022100005138D6943EA05134360C4614968C163CE
:102220000262F0BD000001400004014030B5046AC4
:10223000026A22F4805202624268C3690D6823F484
:10224000E64343EA05238D6824F4005444EA053448
:10225000084DA84202D0084DA84204D14D6922F48D
:10226000804242EA85124260C361496801640462A7
:1022700030BD0000000001400004014010B5036AB9
:10228000046A24F001040462846924F0F00444EA3E
:10229000021423F00A020A438461026210BD10B5E1
:1022A000036A046A24F010040462846923F0A00322
:1022B00024F4704444EA023243EA0111826101626B
:1022C00010BD10B5806B0021C185C184FFF7A1F955
:1022D00010BD01680C3151E8002F22F4907241E8E2
:1022E0000023002BF5D10168143151E8002F22F0B2
:1022F000010241E80023002BF5D1016B012909D12E
:1023000001680C3151E8002F22F0100241E800234F
:10231000002BF5D1202180F8421000210163704785
:1023200008B590F84210222901D0022008BD826829
:102330004FF480539A4201D1016921B1816A9A42D6
:102340001BD04AB10AE00268816A5268C2F30802EF
:102350000A80816A891C08E0026972B102685268C9
:1023600002F07F020A70816A491C8162C18D491E98
:102370000904090CC18503D01BE002685268F1E72B
:102380000168CA6822F02002CA600168CA6822F4A3
:102390008072CA6001684A6922F001024A61202104
:1023A00080F8421000214163026B012A03D0FFF73D
:1023B000A1FB002008BD016301680C3151E8002F2A
:1023C00022F0100241E80023002BF5D101680A68D1
:1023D000D20602D50A6849680091818DFFF718F985
:1023E000E7E7000070B5044600680169E26821F47F
:1023F0004051114301612169A068E26908436169A4
:10240000114308432168CA6849F20C639A430243A6
:10241000CA6020684169A26921F440711143416199
:1024200031492068884202D03049884202D1FEF703
:1024300027FC01E0FEF714FCE26900231921642562
:102440003226B2F5004F626828D0A0FB0101930F3D
:102450009200FDF709FF0146B0FBF5F06FF018029E
:10246000504301EB800006EB0010B0FBF5F000F0EC
:10247000F002B1FBF5F002EB0012B1FBF5F06FF0EA
:102480001803584301EB800006EB0010B0FBF5F099
:1024900000F00F0021681044886070BDA0FB0101AE
:1024A00092185B41FDF7E0FE0146B0FBF5F002013A
:1024B000B1FBF5F06FF01803584301EB800006EB19
:1024C000C000B0FBF5F000F0F80002EB4002B1FBF9
:1024D000F5F0584301EB800006EBC000B0FBF5F0CF
:1024E00000F00700D6E70000001001400014014092
:1024F0000148FFF78FB80000780100200148FFF77E
:1025000089B80000C00100200148FFF783B800002F
:1025100008020020FEE70907090E002804DB00F18D
:10252000E02080F80014704700F00F0000F1E02078
:1025300080F8141D7047FEF767FAFFF7FBFCFFF702
:102540000BFBFFF7DBFAFFF77FFBFFF77DFCFFF7E5
:1025500097FCFFF7B1FCFFF7CBFCFFF7DBFBFFF7C6
:102560000BFCFFF73DFCFEE74FF04070E1EE100A78
:10257000704700061016000610160000000000004C
:102580000000010203040607080900000000010220
:1025900003040000B4250008000000201000000023
:1025A000C4010008C425000810000020C009000074
:1025B000E001000801000000100000000000000021
:0425C0000024F400FF
:040000050800018965
:00000001FF
